{
  "contractName": "GameState",
  "abi": [
    {
      "inputs": [
        {
          "internalType": "address",
          "name": "verifier_address",
          "type": "address"
        }
      ],
      "stateMutability": "nonpayable",
      "type": "constructor"
    },
    {
      "inputs": [],
      "name": "location_hash",
      "outputs": [
        {
          "internalType": "uint256",
          "name": "",
          "type": "uint256"
        }
      ],
      "stateMutability": "view",
      "type": "function",
      "constant": true
    },
    {
      "inputs": [],
      "name": "maxDist",
      "outputs": [
        {
          "internalType": "uint256",
          "name": "",
          "type": "uint256"
        }
      ],
      "stateMutability": "view",
      "type": "function",
      "constant": true
    },
    {
      "inputs": [],
      "name": "minDist",
      "outputs": [
        {
          "internalType": "uint256",
          "name": "",
          "type": "uint256"
        }
      ],
      "stateMutability": "view",
      "type": "function",
      "constant": true
    },
    {
      "inputs": [
        {
          "internalType": "uint256[2]",
          "name": "a",
          "type": "uint256[2]"
        },
        {
          "internalType": "uint256[2][2]",
          "name": "b",
          "type": "uint256[2][2]"
        },
        {
          "internalType": "uint256[2]",
          "name": "c",
          "type": "uint256[2]"
        },
        {
          "internalType": "uint256[3]",
          "name": "input",
          "type": "uint256[3]"
        }
      ],
      "name": "spawn_player",
      "outputs": [],
      "stateMutability": "nonpayable",
      "type": "function"
    }
  ],
  "bytecode": "0x60806040526020600155604060025534801561001a57600080fd5b50604051610d53380380610d53833981810160405281019061003c91906100e5565b806000806101000a81548173ffffffffffffffffffffffffffffffffffffffff021916908373ffffffffffffffffffffffffffffffffffffffff16021790555050610112565b600080fd5b600073ffffffffffffffffffffffffffffffffffffffff82169050919050565b60006100b282610087565b9050919050565b6100c2816100a7565b81146100cd57600080fd5b50565b6000815190506100df816100b9565b92915050565b6000602082840312156100fb576100fa610082565b5b6000610109848285016100d0565b91505092915050565b610c32806101216000396000f3fe608060405234801561001057600080fd5b506004361061004c5760003560e01c8063ab54a0d814610051578063be2ef9471461006f578063c6b7ef411461008b578063e3a7b34e146100a9575b600080fd5b6100596100c7565b604051610066919061038c565b60405180910390f35b6100896004803603810190610084919061068b565b6100cd565b005b610093610367565b6040516100a0919061038c565b60405180910390f35b6100b161036d565b6040516100be919061038c565b60405180910390f35b60015481565b806000600381106100e1576100e06106f4565b5b602002015160038190555060008054906101000a900473ffffffffffffffffffffffffffffffffffffffff1673ffffffffffffffffffffffffffffffffffffffff166311479fea858585856040518563ffffffff1660e01b815260040161014b9493929190610950565b602060405180830381865afa158015610168573d6000803e3d6000fd5b505050506040513d601f19601f8201168201806040525081019061018c91906109cf565b6101cb576040517f08c379a00000000000000000000000000000000000000000000000000000000081526004016101c290610a59565b60405180910390fd5b60046000600354815260200190815260200160002060020160009054906101000a900460ff1615610231576040517f08c379a000000000000000000000000000000000000000000000000000000000815260040161022890610ac5565b60405180910390fd5b60046000600354815260200190815260200160002060020160019054906101000a900460ff161580610287575061012c600460006003548152602001908152602001600020600101546102849190610b14565b42115b6102c6576040517f08c379a00000000000000000000000000000000000000000000000000000000081526004016102bd90610bdc565b60405180910390fd5b60006040518060800160405280600354815260200142815260200160011515815260200160011515815250905080600460006003548152602001908152602001600020600082015181600001556020820151816001015560408201518160020160006101000a81548160ff02191690831515021790555060608201518160020160016101000a81548160ff0219169083151502179055509050505050505050565b60035481565b60025481565b6000819050919050565b61038681610373565b82525050565b60006020820190506103a1600083018461037d565b92915050565b6000604051905090565b600080fd5b600080fd5b6000601f19601f8301169050919050565b7f4e487b7100000000000000000000000000000000000000000000000000000000600052604160045260246000fd5b610404826103bb565b810181811067ffffffffffffffff82111715610423576104226103cc565b5b80604052505050565b60006104366103a7565b905061044282826103fb565b919050565b600067ffffffffffffffff821115610462576104616103cc565b5b602082029050919050565b600080fd5b61047b81610373565b811461048657600080fd5b50565b60008135905061049881610472565b92915050565b60006104b16104ac84610447565b61042c565b905080602084028301858111156104cb576104ca61046d565b5b835b818110156104f457806104e08882610489565b8452602084019350506020810190506104cd565b5050509392505050565b600082601f830112610513576105126103b6565b5b600261052084828561049e565b91505092915050565b600067ffffffffffffffff821115610544576105436103cc565b5b602082029050919050565b600061056261055d84610529565b61042c565b9050806040840283018581111561057c5761057b61046d565b5b835b818110156105a5578061059188826104fe565b84526020840193505060408101905061057e565b5050509392505050565b600082601f8301126105c4576105c36103b6565b5b60026105d184828561054f565b91505092915050565b600067ffffffffffffffff8211156105f5576105f46103cc565b5b602082029050919050565b600061061361060e846105da565b61042c565b9050806020840283018581111561062d5761062c61046d565b5b835b8181101561065657806106428882610489565b84526020840193505060208101905061062f565b5050509392505050565b600082601f830112610675576106746103b6565b5b6003610682848285610600565b91505092915050565b60008060008061016085870312156106a6576106a56103b1565b5b60006106b4878288016104fe565b94505060406106c5878288016105af565b93505060c06106d6878288016104fe565b9250506101006106e887828801610660565b91505092959194509250565b7f4e487b7100000000000000000000000000000000000000000000000000000000600052603260045260246000fd5b600060029050919050565b600081905092915050565b6000819050919050565b61074c81610373565b82525050565b600061075e8383610743565b60208301905092915050565b6000602082019050919050565b61078081610723565b61078a818461072e565b925061079582610739565b8060005b838110156107c65781516107ad8782610752565b96506107b88361076a565b925050600181019050610799565b505050505050565b600060029050919050565b600081905092915050565b6000819050919050565b600081905092915050565b61080281610723565b61080c81846107ee565b925061081782610739565b8060005b8381101561084857815161082f8782610752565b965061083a8361076a565b92505060018101905061081b565b505050505050565b600061085c83836107f9565b60408301905092915050565b6000602082019050919050565b61087e816107ce565b61088881846107d9565b9250610893826107e4565b8060005b838110156108c45781516108ab8782610850565b96506108b683610868565b925050600181019050610897565b505050505050565b600060039050919050565b600081905092915050565b6000819050919050565b6000602082019050919050565b610902816108cc565b61090c81846108d7565b9250610917826108e2565b8060005b8381101561094857815161092f8782610752565b965061093a836108ec565b92505060018101905061091b565b505050505050565b6000610160820190506109666000830187610777565b6109736040830186610875565b61098060c0830185610777565b61098e6101008301846108f9565b95945050505050565b60008115159050919050565b6109ac81610997565b81146109b757600080fd5b50565b6000815190506109c9816109a3565b92915050565b6000602082840312156109e5576109e46103b1565b5b60006109f3848285016109ba565b91505092915050565b600082825260208201905092915050565b7f5375626d69747465642070726f6f6620697320696e76616c6964000000000000600082015250565b6000610a43601a836109fc565b9150610a4e82610a0d565b602082019050919050565b60006020820190508181036000830152610a7281610a36565b9050919050565b7f537061776e6564206c6f636174696f6e206973206e6f7420656d707479000000600082015250565b6000610aaf601d836109fc565b9150610aba82610a79565b602082019050919050565b60006020820190508181036000830152610ade81610aa2565b9050919050565b7f4e487b7100000000000000000000000000000000000000000000000000000000600052601160045260246000fd5b6000610b1f82610373565b9150610b2a83610373565b9250827fffffffffffffffffffffffffffffffffffffffffffffffffffffffffffffffff03821115610b5f57610b5e610ae5565b5b828201905092915050565b7f4c6f636174696f6e20686173206265656e20737061776e656420696e2072656360008201527f656e746c79000000000000000000000000000000000000000000000000000000602082015250565b6000610bc66025836109fc565b9150610bd182610b6a565b604082019050919050565b60006020820190508181036000830152610bf581610bb9565b905091905056fea264697066735822122041270d63be6bc8be372acf02ebc69579de1b20286554049811d70c9f2092221264736f6c634300080a0033",
  "immutableReferences": {},
  "source": "// SPDX-License-Identifier: GPL-3.0\npragma solidity ^0.8.10;\n\ninterface IVerifier {\n     function verifyProof(\n            uint[2] memory a,\n            uint[2][2] memory b,\n            uint[2] memory c,\n            uint[3] memory input\n        ) external view returns (bool r);\n}\n\ncontract GameState {\n    IVerifier verifier;\n    uint public minDist = 32;\n    uint public maxDist = 64;\n    uint public location_hash;\n    struct Player {\n        uint location_hash;\n        uint spawn_time;\n        bool player_present;\n        bool location_isspawned;\n    }\n    mapping (uint => Player) spawned_locations;\n\n    constructor(address verifier_address) {\n        verifier = IVerifier(verifier_address);\n    }\n    function spawn_player(\n        uint[2] memory a,\n        uint[2][2] memory b,\n        uint[2] memory c,\n        uint[3] memory input\n    ) public {\n        location_hash = input[0];\n        require(verifier.verifyProof(a, b, c, input), \"Submitted proof is invalid\");\n        require(!spawned_locations[location_hash].player_present, \"Spawned location is not empty\");\n        require(!(spawned_locations[location_hash].location_isspawned) || (block.timestamp > spawned_locations[location_hash].spawn_time + 300), \"Location has been spawned in recently\");\n        \n\n        Player memory newplayer = Player(location_hash, block.timestamp, true, true);\n        spawned_locations[location_hash] = newplayer;\n\n    }\n}",
  "sourcePath": "/home/kousik/Documents/Projects/zku/darkforest/contracts/gamestate.sol",
  "compiler": {
    "name": "solc",
    "version": "0.8.10+commit.fc410830.Emscripten.clang"
  },
  "schemaVersion": "3.4.4",
  "updatedAt": "2022-01-09T20:22:36.403Z",
  "networkType": "ethereum",
  "devdoc": {
    "kind": "dev",
    "methods": {},
    "version": 1
  },
  "userdoc": {
    "kind": "user",
    "methods": {},
    "version": 1
  }
}